:100000000C942A000C9447000C9447000C94470071
:100010000C9447000C9447000C945F000C946C0007
:100020000C9447000C9447000C9447000C94470034
:100030000C9447000C9447000C9447000C94470024
:100040000C9447000C9447000C9447000C94470014
:100050000C94470011241FBECFE5D4E0DEBFCDBF16
:1000600010E0A0E6B0E0E0E8F9E002C005900D92F3
:10007000A236B107D9F710E0A2E6B0E001C01D92A8
:10008000AB37B107E1F70E94EE020C94BE040C946A
:10009000000083E08FBD8AE18EBD1DBC1CBC17BC77
:1000A00016BC82E08BBD81E78ABD81E089BD84EF0B
:1000B00088BD88E189BF8FEF81BB789408951F9236
:1000C0000F920FB60F92112412BA1DBC1CBC0F90D8
:1000D0000FBE0F901F9018951F920F920FB60F92A0
:1000E00011248F939F9380916C0090916D008130CB
:1000F0009105B9F0823091051CF4892B39F037C095
:1001000082309105C9F0039791F525C08091670071
:1001100089BD8091720088BD81E082BB81E090E062
:1001200015C080916B0089BD80917A0088BD82E006
:1001300082BB82E090E00AC08091790089BD809105
:10014000730088BD84E082BB83E090E090936D00F3
:1001500080936C000CC080916E0089BD80916F000F
:1001600088BD88E082BB10926D0010926C009F9158
:100170008F910F900FBE0F901F901895CF93DF9324
:10018000EA0123EC35EF48E85FE30E945B0420E0DE
:1001900030E847EA53E40E943D030E94A103C230C5
:1001A000D10539F460937A0070936A0070936B0004
:1001B0001BC0C330D10539F46093730070936A009B
:1001C0007093790011C0209739F460936F00709399
:1001D0006A0070936E0008C0219731F4609372003A
:1001E00070936A0070936700DF91CF91089520911A
:1001F00077003091780040E050E00AC000002F5FA7
:100200003F4F2F373105D1F74F5F5F4F2EE730E07B
:100210008417950718F020E030E0F1CF3093780094
:10022000209377005093750040937400089560E028
:1002300070E08FE293E440E050E00E94BE0060E096
:1002400070E08CE093E441E050E00E94BE0060E08A
:1002500070E086E193E442E050E00E94BE006091CD
:1002600060007091610080E090E00E94CD0343E067
:1002700050E00E94BE0088EC90E00E94F70060E031
:1002800070E08AEF92E440E050E00E94BE0060E03F
:1002900070E08EEB92E441E050E00E94BE0060E02E
:1002A00070E08CE093E442E050E00E94BE0088ECF5
:1002B00090E00E94F70060E070E08AEF92E440E096
:1002C00050E00E94BE0060E070E080EA92E441E00D
:1002D00050E00E94BE0060E070E085E293E442E0FE
:1002E00050E00E94BE0088EC90E00E94F70060E0C1
:1002F00070E08FE293E440E050E00E94BE0060E0D6
:1003000070E080EA92E441E050E00E94BE0060E0CC
:1003100070E085E293E442E050E00E94BE0088EC89
:1003200090E00E94F70060E070E08FE293E440E02C
:1003300050E00E94BE0060E070E08CED92E441E08D
:1003400050E00E94BE0060E070E085E293E442E08D
:1003500050E00E94BE0088EC90E00E94F7000895F3
:1003600060E070E08FE293E440E050E00E94BE0065
:1003700060E070E08CE093E441E050E00E94BE0059
:1003800060E070E086E193E442E050E00E94BE004D
:10039000609160007091610080E090E00E94CD0368
:1003A00043E050E00E94BE0088EE93E00E94F70018
:1003B000089560E070E08CE093E440E050E00E943B
:1003C000BE0060E070E080EF92E441E050E00E9407
:1003D000BE0060E070E087E093E442E050E00E94FD
:1003E000BE0060E070E084EB92E443E050E00E94E5
:1003F000BE0088EE93E00E94F70008950E94B001CD
:1004000088EC90E00E94F70060E070E08CE093E4FC
:1004100040E050E00E94BE0060E070E080EF92E4B7
:1004200041E050E00E94BE0060E070E087E093E4AD
:1004300042E050E013C060916000709161006F3A3B
:100440007105D1F06F5F7F4F709361006093600022
:1004500080E090E00E94CD0343E050E00E94BE00A7
:1004600082E390E00E94F70089B38370813019F332
:1004700089B383708330F9F208950E94B00188EC4B
:1004800090E00E94F70060E070E08CE093E440E0D0
:1004900050E00E94BE0060E070E080EF92E441E036
:1004A00050E00E94BE0060E070E087E093E442E02C
:1004B00050E013C06091600070916100653071057B
:1004C000D1F061507040709361006093600080E0F3
:1004D00090E00E94CD0343E050E00E94BE0082E322
:1004E00090E00E94F70089B38370823019F389B3DA
:1004F00083708330F9F2089581E090E09093630077
:10050000809362000E94B00188EC90E00E94F700A6
:1005100060E070E08CE093E440E050E00E94BE00B8
:1005200060E070E080EF92E441E050E00E94BE00A5
:1005300060E070E087E093E442E050E00E94BE009B
:1005400082E390E00E94F7003DC0609160007091EE
:1005500061006F5F7F4F709361006093600080E087
:1005600090E00E94CD0343E050E00E94BE0082E391
:1005700090E00E94F70089B38370813051F160915F
:100580006000709161006F3A710519F1615070401F
:10059000709361006093600080E090E00E94CD0362
:1005A00043E050E00E94BE0082E390E00E94F7002A
:1005B00089B38370823069F080916000909161000E
:1005C000059739F08091620090916300019709F4DA
:1005D000BCCF10926300109262000895CF93DF9316
:1005E0000E9449000E94B00184E690E00E94F7005A
:1005F00017BA1ABACAE5D0E00E94170189B390E091
:1006000083709070892B29F4D0936100C0936000AF
:10061000F3CF89B38370813019F40E94FE0106C0C4
:1006200089B38370823059F40E943D0284E690E0E1
:100630000E94F700D0936100C09360001AC089B394
:1006400083708330C9F68EE190E00E94F70089B391
:100650008370833089F60E94FE0184E690E00E9458
:10066000F7000E94B0010E943D0284E690E00E94E3
:10067000F7000E94B001C0CF5058BB27AA270ED068
:10068000E0C0D1D030F0D6D020F031F49F3F11F44B
:100690001EF4C6C00EF4E095E7FBBCC0E92FE2D023
:1006A00080F3BA17620773078407950718F071F48F
:1006B0009EF5FAC00EF4E0950B2EBA2FA02D0B017B
:1006C000B90190010C01CA01A0011124FF27591B97
:1006D00099F0593F50F4503E68F11A16F040A22F9D
:1006E000232F342F4427585FF3CF4695379527950E
:1006F000A795F0405395C9F77EF41F16BA0B620B0D
:10070000730B840BBAF09150A1F0FF0FBB1F661F53
:10071000771F881FC2F70EC0BA0F621F731F841F96
:1007200048F4879577956795B795F7959E3F08F0BC
:10073000B3CF9395880F08F09927EE0F979587957B
:10074000089598D088F09F5790F0B92F9927B75106
:10075000A0F0D1F0660F771F881F991F1AF0BA9585
:10076000C9F712C0B13081F09FD0B1E008959CC0AC
:10077000672F782F8827B85F39F0B93FCCF386957B
:1007800077956795B395D9F73EF4909580957095D8
:1007900061957F4F8F4F9F4F0895E89409C097FB55
:1007A0003EF490958095709561957F4F8F4F9F4F48
:1007B0009923A9F0F92F96E9BB279395F69587958C
:1007C00077956795B795F111F8CFFAF4BB0F11F44F
:1007D00060FF1BC06F5F7F4F8F4F9F4F16C08823F6
:1007E00011F096E911C0772321F09EE8872F762F2C
:1007F00005C0662371F096E8862F70E060E02AF06D
:100800009A95660F771F881FDAF7880F9695879558
:1008100097F9089597F99F6780E870E060E0089580
:100820009FEF80EC089500240A9416161706180608
:100830000906089500240A941216130614060506E4
:100840000895092E0394000C11F4882352F0BB0F75
:1008500040F4BF2B11F460FF04C06F5F7F4F8F4FD8
:100860009F4F089557FD9058440F551F59F05F3F13
:1008700071F04795880F97FB991F61F09F3F79F0C2
:1008800087950895121613061406551FF2CF469544
:10089000F1DF08C0161617061806991FF1CF8695C6
:1008A0007105610508940895E894BB2766277727AA
:1008B000CB0197F908950BD0C4CFB5DF28F0BADF8C
:1008C00018F0952309F0A6CFABCF1124EECFCADFE5
:1008D000A0F3959FD1F3950F50E0551F629FF00153
:1008E000729FBB27F00DB11D639FAA27F00DB11DAC
:1008F000AA1F649F6627B00DA11D661F829F222735
:10090000B00DA11D621F739FB00DA11D621F839FBB
:10091000A00D611D221F749F3327A00D611D231F91
:10092000849F600D211D822F762F6A2F11249F57DF
:1009300050408AF0E1F088234AF0EE0FFF1FBB1F02
:10094000661F771F881F91505040A9F79E3F5105A1
:1009500070F060CFAACF5F3FECF3983EDCF3869552
:1009600077956795B795F795E7959F5FC1F7FE2B4C
:10097000880F911D9695879597F90895F894FFCF64
:020980005A001B
:00000001FF
